{
  "_format": "hh-sol-artifact-1",
  "contractName": "ReviewStorage",
  "sourceName": "contracts/ReviewStorage.sol",
  "abi": [
    {
      "inputs": [
        {
          "internalType": "address",
          "name": "_nftContract",
          "type": "address"
        }
      ],
      "stateMutability": "nonpayable",
      "type": "constructor"
    },
    {
      "anonymous": false,
      "inputs": [
        {
          "indexed": true,
          "internalType": "address",
          "name": "reviewer",
          "type": "address"
        },
        {
          "indexed": true,
          "internalType": "uint256",
          "name": "nftId",
          "type": "uint256"
        },
        {
          "indexed": false,
          "internalType": "string",
          "name": "shopDID",
          "type": "string"
        },
        {
          "indexed": false,
          "internalType": "string",
          "name": "ipfsCid",
          "type": "string"
        },
        {
          "indexed": false,
          "internalType": "bytes32",
          "name": "contentHash",
          "type": "bytes32"
        },
        {
          "indexed": false,
          "internalType": "uint256",
          "name": "timestamp",
          "type": "uint256"
        }
      ],
      "name": "ReviewSubmitted",
      "type": "event"
    },
    {
      "inputs": [],
      "name": "getAllReviews",
      "outputs": [
        {
          "internalType": "string[]",
          "name": "",
          "type": "string[]"
        }
      ],
      "stateMutability": "view",
      "type": "function"
    },
    {
      "inputs": [
        {
          "internalType": "uint256",
          "name": "index",
          "type": "uint256"
        }
      ],
      "name": "getReview",
      "outputs": [
        {
          "internalType": "address",
          "name": "",
          "type": "address"
        },
        {
          "internalType": "string",
          "name": "",
          "type": "string"
        },
        {
          "internalType": "string",
          "name": "",
          "type": "string"
        },
        {
          "internalType": "bytes32",
          "name": "",
          "type": "bytes32"
        },
        {
          "internalType": "uint256",
          "name": "",
          "type": "uint256"
        }
      ],
      "stateMutability": "view",
      "type": "function"
    },
    {
      "inputs": [],
      "name": "getReviewCount",
      "outputs": [
        {
          "internalType": "uint256",
          "name": "",
          "type": "uint256"
        }
      ],
      "stateMutability": "view",
      "type": "function"
    },
    {
      "inputs": [
        {
          "internalType": "uint256",
          "name": "",
          "type": "uint256"
        }
      ],
      "name": "isConsumed",
      "outputs": [
        {
          "internalType": "bool",
          "name": "",
          "type": "bool"
        }
      ],
      "stateMutability": "view",
      "type": "function"
    },
    {
      "inputs": [],
      "name": "nftContract",
      "outputs": [
        {
          "internalType": "address",
          "name": "",
          "type": "address"
        }
      ],
      "stateMutability": "view",
      "type": "function"
    },
    {
      "inputs": [
        {
          "internalType": "uint256",
          "name": "nftId",
          "type": "uint256"
        },
        {
          "internalType": "string",
          "name": "shopDID",
          "type": "string"
        },
        {
          "internalType": "string",
          "name": "ipfsCid",
          "type": "string"
        },
        {
          "internalType": "bytes32",
          "name": "contentHash",
          "type": "bytes32"
        }
      ],
      "name": "submitReview",
      "outputs": [],
      "stateMutability": "nonpayable",
      "type": "function"
    }
  ],
  "bytecode": "0x60806040523480156200001157600080fd5b5060405162001466380380620014668339818101604052810190620000379190620000e8565b806000806101000a81548173ffffffffffffffffffffffffffffffffffffffff021916908373ffffffffffffffffffffffffffffffffffffffff160217905550506200011a565b600080fd5b600073ffffffffffffffffffffffffffffffffffffffff82169050919050565b6000620000b08262000083565b9050919050565b620000c281620000a3565b8114620000ce57600080fd5b50565b600081519050620000e281620000b7565b92915050565b6000602082840312156200010157620001006200007e565b5b60006200011184828501620000d1565b91505092915050565b61133c806200012a6000396000f3fe608060405234801561001057600080fd5b50600436106100625760003560e01c806345a7b01c14610067578063709dc7fb14610085578063990581b6146100a3578063cd3d0d50146100d7578063d56d229d146100f3578063d7450a8d14610111575b600080fd5b61006f610141565b60405161007c91906109dc565b60405180910390f35b61008d610291565b60405161009a9190610a17565b60405180910390f35b6100bd60048036038101906100b89190610a68565b61029e565b6040516100ce959493929190610b39565b60405180910390f35b6100f160048036038101906100ec9190610c2b565b6104d9565b005b6100fb610846565b6040516101089190610cd2565b60405180910390f35b61012b60048036038101906101269190610a68565b61086a565b6040516101389190610d08565b60405180910390f35b6060600060028054905067ffffffffffffffff81111561016457610163610d23565b5b60405190808252806020026020018201604052801561019757816020015b60608152602001906001900390816101825790505b50905060005b60028054905081101561028957600281815481106101be576101bd610d52565b5b906000526020600020906005020160020180546101da90610db0565b80601f016020809104026020016040519081016040528092919081815260200182805461020690610db0565b80156102535780601f1061022857610100808354040283529160200191610253565b820191906000526020600020905b81548152906001019060200180831161023657829003601f168201915b505050505082828151811061026b5761026a610d52565b5b6020026020010181905250808061028190610e10565b91505061019d565b508091505090565b6000600280549050905090565b600060608060008060028054905086106102ed576040517f08c379a00000000000000000000000000000000000000000000000000000000081526004016102e490610ea4565b60405180910390fd5b60006002878154811061030357610302610d52565b5b90600052602060002090600502016040518060a00160405290816000820160009054906101000a900473ffffffffffffffffffffffffffffffffffffffff1673ffffffffffffffffffffffffffffffffffffffff1673ffffffffffffffffffffffffffffffffffffffff16815260200160018201805461038290610db0565b80601f01602080910402602001604051908101604052809291908181526020018280546103ae90610db0565b80156103fb5780601f106103d0576101008083540402835291602001916103fb565b820191906000526020600020905b8154815290600101906020018083116103de57829003601f168201915b5050505050815260200160028201805461041490610db0565b80601f016020809104026020016040519081016040528092919081815260200182805461044090610db0565b801561048d5780601f106104625761010080835404028352916020019161048d565b820191906000526020600020905b81548152906001019060200180831161047057829003601f168201915b5050505050815260200160038201548152602001600482015481525050905080600001518160200151826040015183606001518460800151955095509550955095505091939590929450565b6001600087815260200190815260200160002060009054906101000a900460ff161561053a576040517f08c379a000000000000000000000000000000000000000000000000000000000815260040161053190610f10565b60405180910390fd5b3373ffffffffffffffffffffffffffffffffffffffff1660008054906101000a900473ffffffffffffffffffffffffffffffffffffffff1673ffffffffffffffffffffffffffffffffffffffff16636352211e886040518263ffffffff1660e01b81526004016105aa9190610a17565b602060405180830381865afa1580156105c7573d6000803e3d6000fd5b505050506040513d601f19601f820116820180604052508101906105eb9190610f5c565b73ffffffffffffffffffffffffffffffffffffffff1614610641576040517f08c379a000000000000000000000000000000000000000000000000000000000815260040161063890610fd5565b60405180910390fd5b600180600088815260200190815260200160002060006101000a81548160ff02191690831515021790555060026040518060a001604052803373ffffffffffffffffffffffffffffffffffffffff16815260200187878080601f016020809104026020016040519081016040528093929190818152602001838380828437600081840152601f19601f82011690508083019250505050505050815260200185858080601f016020809104026020016040519081016040528093929190818152602001838380828437600081840152601f19601f82011690508083019250505050505050815260200183815260200142815250908060018154018082558091505060019003906000526020600020906005020160009091909190915060008201518160000160006101000a81548173ffffffffffffffffffffffffffffffffffffffff021916908373ffffffffffffffffffffffffffffffffffffffff16021790555060208201518160010190816107b891906111a1565b5060408201518160020190816107ce91906111a1565b5060608201518160030155608082015181600401555050853373ffffffffffffffffffffffffffffffffffffffff167f17c8bfc249b03dad446cf5bf6107c80b40dc5dc0a1dcaa623b83a040485ff6a0878787878742604051610836969594939291906112af565b60405180910390a3505050505050565b60008054906101000a900473ffffffffffffffffffffffffffffffffffffffff1681565b60016020528060005260406000206000915054906101000a900460ff1681565b600081519050919050565b600082825260208201905092915050565b6000819050602082019050919050565b600081519050919050565b600082825260208201905092915050565b60005b838110156108f05780820151818401526020810190506108d5565b60008484015250505050565b6000601f19601f8301169050919050565b6000610918826108b6565b61092281856108c1565b93506109328185602086016108d2565b61093b816108fc565b840191505092915050565b6000610952838361090d565b905092915050565b6000602082019050919050565b60006109728261088a565b61097c8185610895565b93508360208202850161098e856108a6565b8060005b858110156109ca57848403895281516109ab8582610946565b94506109b68361095a565b925060208a01995050600181019050610992565b50829750879550505050505092915050565b600060208201905081810360008301526109f68184610967565b905092915050565b6000819050919050565b610a11816109fe565b82525050565b6000602082019050610a2c6000830184610a08565b92915050565b600080fd5b600080fd5b610a45816109fe565b8114610a5057600080fd5b50565b600081359050610a6281610a3c565b92915050565b600060208284031215610a7e57610a7d610a32565b5b6000610a8c84828501610a53565b91505092915050565b600073ffffffffffffffffffffffffffffffffffffffff82169050919050565b6000610ac082610a95565b9050919050565b610ad081610ab5565b82525050565b600082825260208201905092915050565b6000610af2826108b6565b610afc8185610ad6565b9350610b0c8185602086016108d2565b610b15816108fc565b840191505092915050565b6000819050919050565b610b3381610b20565b82525050565b600060a082019050610b4e6000830188610ac7565b8181036020830152610b608187610ae7565b90508181036040830152610b748186610ae7565b9050610b836060830185610b2a565b610b906080830184610a08565b9695505050505050565b600080fd5b600080fd5b600080fd5b60008083601f840112610bbf57610bbe610b9a565b5b8235905067ffffffffffffffff811115610bdc57610bdb610b9f565b5b602083019150836001820283011115610bf857610bf7610ba4565b5b9250929050565b610c0881610b20565b8114610c1357600080fd5b50565b600081359050610c2581610bff565b92915050565b60008060008060008060808789031215610c4857610c47610a32565b5b6000610c5689828a01610a53565b965050602087013567ffffffffffffffff811115610c7757610c76610a37565b5b610c8389828a01610ba9565b9550955050604087013567ffffffffffffffff811115610ca657610ca5610a37565b5b610cb289828a01610ba9565b93509350506060610cc589828a01610c16565b9150509295509295509295565b6000602082019050610ce76000830184610ac7565b92915050565b60008115159050919050565b610d0281610ced565b82525050565b6000602082019050610d1d6000830184610cf9565b92915050565b7f4e487b7100000000000000000000000000000000000000000000000000000000600052604160045260246000fd5b7f4e487b7100000000000000000000000000000000000000000000000000000000600052603260045260246000fd5b7f4e487b7100000000000000000000000000000000000000000000000000000000600052602260045260246000fd5b60006002820490506001821680610dc857607f821691505b602082108103610ddb57610dda610d81565b5b50919050565b7f4e487b7100000000000000000000000000000000000000000000000000000000600052601160045260246000fd5b6000610e1b826109fe565b91507fffffffffffffffffffffffffffffffffffffffffffffffffffffffffffffffff8203610e4d57610e4c610de1565b5b600182019050919050565b7f496e646578206f7574206f6620626f756e647300000000000000000000000000600082015250565b6000610e8e601383610ad6565b9150610e9982610e58565b602082019050919050565b60006020820190508181036000830152610ebd81610e81565b9050919050565b7f4e465420616c7265616479207573656400000000000000000000000000000000600082015250565b6000610efa601083610ad6565b9150610f0582610ec4565b602082019050919050565b60006020820190508181036000830152610f2981610eed565b9050919050565b610f3981610ab5565b8114610f4457600080fd5b50565b600081519050610f5681610f30565b92915050565b600060208284031215610f7257610f71610a32565b5b6000610f8084828501610f47565b91505092915050565b7f4e6f7420746865204e4654206f776e6572000000000000000000000000000000600082015250565b6000610fbf601183610ad6565b9150610fca82610f89565b602082019050919050565b60006020820190508181036000830152610fee81610fb2565b9050919050565b60008190508160005260206000209050919050565b60006020601f8301049050919050565b600082821b905092915050565b6000600883026110577fffffffffffffffffffffffffffffffffffffffffffffffffffffffffffffffff8261101a565b611061868361101a565b95508019841693508086168417925050509392505050565b6000819050919050565b600061109e611099611094846109fe565b611079565b6109fe565b9050919050565b6000819050919050565b6110b883611083565b6110cc6110c4826110a5565b848454611027565b825550505050565b600090565b6110e16110d4565b6110ec8184846110af565b505050565b5b81811015611110576111056000826110d9565b6001810190506110f2565b5050565b601f8211156111555761112681610ff5565b61112f8461100a565b8101602085101561113e578190505b61115261114a8561100a565b8301826110f1565b50505b505050565b600082821c905092915050565b60006111786000198460080261115a565b1980831691505092915050565b60006111918383611167565b9150826002028217905092915050565b6111aa826108b6565b67ffffffffffffffff8111156111c3576111c2610d23565b5b6111cd8254610db0565b6111d8828285611114565b600060209050601f83116001811461120b57600084156111f9578287015190505b6112038582611185565b86555061126b565b601f19841661121986610ff5565b60005b828110156112415784890151825560018201915060208501945060208101905061121c565b8683101561125e578489015161125a601f891682611167565b8355505b6001600288020188555050505b505050505050565b82818337600083830152505050565b600061128e8385610ad6565b935061129b838584611273565b6112a4836108fc565b840190509392505050565b600060808201905081810360008301526112ca81888a611282565b905081810360208301526112df818688611282565b90506112ee6040830185610b2a565b6112fb6060830184610a08565b97965050505050505056fea26469706673582212203f94d4d6bc7f99aaebfe9f8d38c5cba505595960071997f45a417e20b39eb82e64736f6c63430008140033",
  "linkReferences": {},
  "deployedLinkReferences": {}
}